{
  "_format": "hh-sol-artifact-1",
  "contractName": "NoahERC20",
  "sourceName": "contracts/NoahERC20.sol",
  "abi": [
    {
      "inputs": [],
      "stateMutability": "nonpayable",
      "type": "constructor"
    },
    {
      "anonymous": false,
      "inputs": [
        {
          "indexed": true,
          "internalType": "address",
          "name": "owner",
          "type": "address"
        },
        {
          "indexed": true,
          "internalType": "address",
          "name": "spender",
          "type": "address"
        },
        {
          "indexed": false,
          "internalType": "uint256",
          "name": "value",
          "type": "uint256"
        }
      ],
      "name": "Approval",
      "type": "event"
    },
    {
      "anonymous": false,
      "inputs": [
        {
          "indexed": true,
          "internalType": "address",
          "name": "from",
          "type": "address"
        },
        {
          "indexed": true,
          "internalType": "address",
          "name": "to",
          "type": "address"
        },
        {
          "indexed": false,
          "internalType": "uint256",
          "name": "value",
          "type": "uint256"
        }
      ],
      "name": "Transfer",
      "type": "event"
    },
    {
      "inputs": [
        {
          "internalType": "address",
          "name": "owner",
          "type": "address"
        },
        {
          "internalType": "address",
          "name": "spender",
          "type": "address"
        }
      ],
      "name": "allowance",
      "outputs": [
        {
          "internalType": "uint256",
          "name": "",
          "type": "uint256"
        }
      ],
      "stateMutability": "view",
      "type": "function"
    },
    {
      "inputs": [
        {
          "internalType": "address",
          "name": "spender",
          "type": "address"
        },
        {
          "internalType": "uint256",
          "name": "amount",
          "type": "uint256"
        }
      ],
      "name": "approve",
      "outputs": [
        {
          "internalType": "bool",
          "name": "",
          "type": "bool"
        }
      ],
      "stateMutability": "nonpayable",
      "type": "function"
    },
    {
      "inputs": [
        {
          "internalType": "address",
          "name": "account",
          "type": "address"
        }
      ],
      "name": "balanceOf",
      "outputs": [
        {
          "internalType": "uint256",
          "name": "",
          "type": "uint256"
        }
      ],
      "stateMutability": "view",
      "type": "function"
    },
    {
      "inputs": [],
      "name": "decimals",
      "outputs": [
        {
          "internalType": "uint8",
          "name": "",
          "type": "uint8"
        }
      ],
      "stateMutability": "view",
      "type": "function"
    },
    {
      "inputs": [
        {
          "internalType": "address",
          "name": "spender",
          "type": "address"
        },
        {
          "internalType": "uint256",
          "name": "subtractedValue",
          "type": "uint256"
        }
      ],
      "name": "decreaseAllowance",
      "outputs": [
        {
          "internalType": "bool",
          "name": "",
          "type": "bool"
        }
      ],
      "stateMutability": "nonpayable",
      "type": "function"
    },
    {
      "inputs": [
        {
          "internalType": "address",
          "name": "spender",
          "type": "address"
        },
        {
          "internalType": "uint256",
          "name": "addedValue",
          "type": "uint256"
        }
      ],
      "name": "increaseAllowance",
      "outputs": [
        {
          "internalType": "bool",
          "name": "",
          "type": "bool"
        }
      ],
      "stateMutability": "nonpayable",
      "type": "function"
    },
    {
      "inputs": [],
      "name": "name",
      "outputs": [
        {
          "internalType": "string",
          "name": "",
          "type": "string"
        }
      ],
      "stateMutability": "view",
      "type": "function"
    },
    {
      "inputs": [
        {
          "internalType": "address",
          "name": "account",
          "type": "address"
        }
      ],
      "name": "noah_balanceOf",
      "outputs": [
        {
          "internalType": "uint256",
          "name": "",
          "type": "uint256"
        }
      ],
      "stateMutability": "view",
      "type": "function"
    },
    {
      "inputs": [
        {
          "internalType": "address",
          "name": "to",
          "type": "address"
        },
        {
          "internalType": "uint256",
          "name": "amount",
          "type": "uint256"
        }
      ],
      "name": "noah_transfer",
      "outputs": [],
      "stateMutability": "nonpayable",
      "type": "function"
    },
    {
      "inputs": [],
      "name": "owner",
      "outputs": [
        {
          "internalType": "address",
          "name": "",
          "type": "address"
        }
      ],
      "stateMutability": "view",
      "type": "function"
    },
    {
      "inputs": [],
      "name": "symbol",
      "outputs": [
        {
          "internalType": "string",
          "name": "",
          "type": "string"
        }
      ],
      "stateMutability": "view",
      "type": "function"
    },
    {
      "inputs": [],
      "name": "totalSupply",
      "outputs": [
        {
          "internalType": "uint256",
          "name": "",
          "type": "uint256"
        }
      ],
      "stateMutability": "view",
      "type": "function"
    },
    {
      "inputs": [
        {
          "internalType": "address",
          "name": "recipient",
          "type": "address"
        },
        {
          "internalType": "uint256",
          "name": "amount",
          "type": "uint256"
        }
      ],
      "name": "transfer",
      "outputs": [
        {
          "internalType": "bool",
          "name": "",
          "type": "bool"
        }
      ],
      "stateMutability": "nonpayable",
      "type": "function"
    },
    {
      "inputs": [
        {
          "internalType": "address",
          "name": "sender",
          "type": "address"
        },
        {
          "internalType": "address",
          "name": "recipient",
          "type": "address"
        },
        {
          "internalType": "uint256",
          "name": "amount",
          "type": "uint256"
        }
      ],
      "name": "transferFrom",
      "outputs": [
        {
          "internalType": "bool",
          "name": "",
          "type": "bool"
        }
      ],
      "stateMutability": "nonpayable",
      "type": "function"
    }
  ],
  "bytecode": "0x60806040526040518060400160405280600981526020017f4e6f61684552433230000000000000000000000000000000000000000000000081525060059080519060200190620000519291906200040f565b506040518060400160405280600481526020017f4e45323000000000000000000000000000000000000000000000000000000000815250600690805190602001906200009f9291906200040f565b50620f42406007556012600855348015620000b957600080fd5b5060058054620000c990620007c2565b80601f0160208091040260200160405190810160405280929190818152602001828054620000f790620007c2565b8015620001485780601f106200011c5761010080835404028352916020019162000148565b820191906000526020600020905b8154815290600101906020018083116200012a57829003601f168201915b5050505050600680546200015c90620007c2565b80601f01602080910402602001604051908101604052809291908181526020018280546200018a90620007c2565b8015620001db5780601f10620001af57610100808354040283529160200191620001db565b820191906000526020600020905b815481529060010190602001808311620001bd57829003601f168201915b50505050508160039080519060200190620001f89291906200040f565b508060049080519060200190620002119291906200040f565b5050506200024533600854600a6200022a91906200061a565b60075462000239919062000757565b6200028c60201b60201c565b33600960006101000a81548173ffffffffffffffffffffffffffffffffffffffff021916908373ffffffffffffffffffffffffffffffffffffffff16021790555062000863565b600073ffffffffffffffffffffffffffffffffffffffff168273ffffffffffffffffffffffffffffffffffffffff161415620002ff576040517f08c379a0000000000000000000000000000000000000000000000000000000008152600401620002f69062000512565b60405180910390fd5b62000313600083836200040560201b60201c565b806002600082825462000327919062000562565b92505081905550806000808473ffffffffffffffffffffffffffffffffffffffff1673ffffffffffffffffffffffffffffffffffffffff16815260200190815260200160002060008282546200037e919062000562565b925050819055508173ffffffffffffffffffffffffffffffffffffffff16600073ffffffffffffffffffffffffffffffffffffffff167fddf252ad1be2c89b69c2b068fc378daa952ba7f163c4a11628f55a4df523b3ef83604051620003e5919062000534565b60405180910390a362000401600083836200040a60201b60201c565b5050565b505050565b505050565b8280546200041d90620007c2565b90600052602060002090601f0160209004810192826200044157600085556200048d565b82601f106200045c57805160ff19168380011785556200048d565b828001600101855582156200048d579182015b828111156200048c5782518255916020019190600101906200046f565b5b5090506200049c9190620004a0565b5090565b5b80821115620004bb576000816000905550600101620004a1565b5090565b6000620004ce601f8362000551565b91507f45524332303a206d696e7420746f20746865207a65726f2061646472657373006000830152602082019050919050565b6200050c81620007b8565b82525050565b600060208201905081810360008301526200052d81620004bf565b9050919050565b60006020820190506200054b600083018462000501565b92915050565b600082825260208201905092915050565b60006200056f82620007b8565b91506200057c83620007b8565b9250827fffffffffffffffffffffffffffffffffffffffffffffffffffffffffffffffff03821115620005b457620005b3620007f8565b5b828201905092915050565b6000808291508390505b60018511156200061157808604811115620005e957620005e8620007f8565b5b6001851615620005f95780820291505b8081029050620006098562000856565b9450620005c9565b94509492505050565b60006200062782620007b8565b91506200063483620007b8565b9250620006637fffffffffffffffffffffffffffffffffffffffffffffffffffffffffffffffff84846200066b565b905092915050565b6000826200067d576001905062000750565b816200068d576000905062000750565b8160018114620006a65760028114620006b157620006e7565b600191505062000750565b60ff841115620006c657620006c5620007f8565b5b8360020a915084821115620006e057620006df620007f8565b5b5062000750565b5060208310610133831016604e8410600b8410161715620007215782820a9050838111156200071b576200071a620007f8565b5b62000750565b620007308484846001620005bf565b925090508184048111156200074a5762000749620007f8565b5b81810290505b9392505050565b60006200076482620007b8565b91506200077183620007b8565b9250817fffffffffffffffffffffffffffffffffffffffffffffffffffffffffffffffff0483118215151615620007ad57620007ac620007f8565b5b828202905092915050565b6000819050919050565b60006002820490506001821680620007db57607f821691505b60208210811415620007f257620007f162000827565b5b50919050565b7f4e487b7100000000000000000000000000000000000000000000000000000000600052601160045260246000fd5b7f4e487b7100000000000000000000000000000000000000000000000000000000600052602260045260246000fd5b60008160011c9050919050565b61145d80620008736000396000f3fe608060405234801561001057600080fd5b50600436106100ea5760003560e01c806370a082311161008c578063a457c2d711610066578063a457c2d714610261578063a860966f14610291578063a9059cbb146102c1578063dd62ed3e146102f1576100ea565b806370a08231146101f55780638da5cb5b1461022557806395d89b4114610243576100ea565b806318160ddd116100c857806318160ddd1461015957806323b872dd14610177578063313ce567146101a757806339509351146101c5576100ea565b8063035fd6c1146100ef57806306fdde031461010b578063095ea7b314610129575b600080fd5b61010960048036038101906101049190610d75565b610321565b005b610113610330565b6040516101209190611126565b60405180910390f35b610143600480360381019061013e9190610d75565b6103c2565b604051610150919061110b565b60405180910390f35b6101616103e0565b60405161016e9190611228565b60405180910390f35b610191600480360381019061018c9190610d26565b6103ea565b60405161019e919061110b565b60405180910390f35b6101af6104e2565b6040516101bc9190611243565b60405180910390f35b6101df60048036038101906101da9190610d75565b6104eb565b6040516101ec919061110b565b60405180910390f35b61020f600480360381019061020a9190610cc1565b610597565b60405161021c9190611228565b60405180910390f35b61022d6105df565b60405161023a91906110f0565b60405180910390f35b61024b610605565b6040516102589190611126565b60405180910390f35b61027b60048036038101906102769190610d75565b610697565b604051610288919061110b565b60405180910390f35b6102ab60048036038101906102a69190610cc1565b610782565b6040516102b89190611228565b60405180910390f35b6102db60048036038101906102d69190610d75565b610794565b6040516102e8919061110b565b60405180910390f35b61030b60048036038101906103069190610cea565b6107b2565b6040516103189190611228565b60405180910390f35b61032b8282610794565b505050565b60606003805461033f90611358565b80601f016020809104026020016040519081016040528092919081815260200182805461036b90611358565b80156103b85780601f1061038d576101008083540402835291602001916103b8565b820191906000526020600020905b81548152906001019060200180831161039b57829003601f168201915b5050505050905090565b60006103d66103cf610839565b8484610841565b6001905092915050565b6000600254905090565b60006103f7848484610a0c565b6000600160008673ffffffffffffffffffffffffffffffffffffffff1673ffffffffffffffffffffffffffffffffffffffff1681526020019081526020016000206000610442610839565b73ffffffffffffffffffffffffffffffffffffffff1673ffffffffffffffffffffffffffffffffffffffff168152602001908152602001600020549050828110156104c2576040517f08c379a00000000000000000000000000000000000000000000000000000000081526004016104b9906111a8565b60405180910390fd5b6104d6856104ce610839565b858403610841565b60019150509392505050565b60006012905090565b600061058d6104f8610839565b848460016000610506610839565b73ffffffffffffffffffffffffffffffffffffffff1673ffffffffffffffffffffffffffffffffffffffff16815260200190815260200160002060008873ffffffffffffffffffffffffffffffffffffffff1673ffffffffffffffffffffffffffffffffffffffff16815260200190815260200160002054610588919061127a565b610841565b6001905092915050565b60008060008373ffffffffffffffffffffffffffffffffffffffff1673ffffffffffffffffffffffffffffffffffffffff168152602001908152602001600020549050919050565b600960009054906101000a900473ffffffffffffffffffffffffffffffffffffffff1681565b60606004805461061490611358565b80601f016020809104026020016040519081016040528092919081815260200182805461064090611358565b801561068d5780601f106106625761010080835404028352916020019161068d565b820191906000526020600020905b81548152906001019060200180831161067057829003601f168201915b5050505050905090565b600080600160006106a6610839565b73ffffffffffffffffffffffffffffffffffffffff1673ffffffffffffffffffffffffffffffffffffffff16815260200190815260200160002060008573ffffffffffffffffffffffffffffffffffffffff1673ffffffffffffffffffffffffffffffffffffffff16815260200190815260200160002054905082811015610763576040517f08c379a000000000000000000000000000000000000000000000000000000000815260040161075a90611208565b60405180910390fd5b61077761076e610839565b85858403610841565b600191505092915050565b600061078d82610597565b9050919050565b60006107a86107a1610839565b8484610a0c565b6001905092915050565b6000600160008473ffffffffffffffffffffffffffffffffffffffff1673ffffffffffffffffffffffffffffffffffffffff16815260200190815260200160002060008373ffffffffffffffffffffffffffffffffffffffff1673ffffffffffffffffffffffffffffffffffffffff16815260200190815260200160002054905092915050565b600033905090565b600073ffffffffffffffffffffffffffffffffffffffff168373ffffffffffffffffffffffffffffffffffffffff1614156108b1576040517f08c379a00000000000000000000000000000000000000000000000000000000081526004016108a8906111e8565b60405180910390fd5b600073ffffffffffffffffffffffffffffffffffffffff168273ffffffffffffffffffffffffffffffffffffffff161415610921576040517f08c379a000000000000000000000000000000000000000000000000000000000815260040161091890611168565b60405180910390fd5b80600160008573ffffffffffffffffffffffffffffffffffffffff1673ffffffffffffffffffffffffffffffffffffffff16815260200190815260200160002060008473ffffffffffffffffffffffffffffffffffffffff1673ffffffffffffffffffffffffffffffffffffffff168152602001908152602001600020819055508173ffffffffffffffffffffffffffffffffffffffff168373ffffffffffffffffffffffffffffffffffffffff167f8c5be1e5ebec7d5bd14f71427d1e84f3dd0314c0f7b2291e5b200ac8c7c3b925836040516109ff9190611228565b60405180910390a3505050565b600073ffffffffffffffffffffffffffffffffffffffff168373ffffffffffffffffffffffffffffffffffffffff161415610a7c576040517f08c379a0000000000000000000000000000000000000000000000000000000008152600401610a73906111c8565b60405180910390fd5b600073ffffffffffffffffffffffffffffffffffffffff168273ffffffffffffffffffffffffffffffffffffffff161415610aec576040517f08c379a0000000000000000000000000000000000000000000000000000000008152600401610ae390611148565b60405180910390fd5b610af7838383610c8d565b60008060008573ffffffffffffffffffffffffffffffffffffffff1673ffffffffffffffffffffffffffffffffffffffff16815260200190815260200160002054905081811015610b7d576040517f08c379a0000000000000000000000000000000000000000000000000000000008152600401610b7490611188565b60405180910390fd5b8181036000808673ffffffffffffffffffffffffffffffffffffffff1673ffffffffffffffffffffffffffffffffffffffff16815260200190815260200160002081905550816000808573ffffffffffffffffffffffffffffffffffffffff1673ffffffffffffffffffffffffffffffffffffffff1681526020019081526020016000206000828254610c10919061127a565b925050819055508273ffffffffffffffffffffffffffffffffffffffff168473ffffffffffffffffffffffffffffffffffffffff167fddf252ad1be2c89b69c2b068fc378daa952ba7f163c4a11628f55a4df523b3ef84604051610c749190611228565b60405180910390a3610c87848484610c92565b50505050565b505050565b505050565b600081359050610ca6816113f9565b92915050565b600081359050610cbb81611410565b92915050565b600060208284031215610cd357600080fd5b6000610ce184828501610c97565b91505092915050565b60008060408385031215610cfd57600080fd5b6000610d0b85828601610c97565b9250506020610d1c85828601610c97565b9150509250929050565b600080600060608486031215610d3b57600080fd5b6000610d4986828701610c97565b9350506020610d5a86828701610c97565b9250506040610d6b86828701610cac565b9150509250925092565b60008060408385031215610d8857600080fd5b6000610d9685828601610c97565b9250506020610da785828601610cac565b9150509250929050565b610dba816112d0565b82525050565b610dc9816112e2565b82525050565b6000610dda8261125e565b610de48185611269565b9350610df4818560208601611325565b610dfd816113e8565b840191505092915050565b6000610e15602383611269565b91507f45524332303a207472616e7366657220746f20746865207a65726f206164647260008301527f65737300000000000000000000000000000000000000000000000000000000006020830152604082019050919050565b6000610e7b602283611269565b91507f45524332303a20617070726f766520746f20746865207a65726f20616464726560008301527f73730000000000000000000000000000000000000000000000000000000000006020830152604082019050919050565b6000610ee1602683611269565b91507f45524332303a207472616e7366657220616d6f756e742065786365656473206260008301527f616c616e636500000000000000000000000000000000000000000000000000006020830152604082019050919050565b6000610f47602883611269565b91507f45524332303a207472616e7366657220616d6f756e742065786365656473206160008301527f6c6c6f77616e63650000000000000000000000000000000000000000000000006020830152604082019050919050565b6000610fad602583611269565b91507f45524332303a207472616e736665722066726f6d20746865207a65726f20616460008301527f64726573730000000000000000000000000000000000000000000000000000006020830152604082019050919050565b6000611013602483611269565b91507f45524332303a20617070726f76652066726f6d20746865207a65726f2061646460008301527f72657373000000000000000000000000000000000000000000000000000000006020830152604082019050919050565b6000611079602583611269565b91507f45524332303a2064656372656173656420616c6c6f77616e63652062656c6f7760008301527f207a65726f0000000000000000000000000000000000000000000000000000006020830152604082019050919050565b6110db8161130e565b82525050565b6110ea81611318565b82525050565b60006020820190506111056000830184610db1565b92915050565b60006020820190506111206000830184610dc0565b92915050565b600060208201905081810360008301526111408184610dcf565b905092915050565b6000602082019050818103600083015261116181610e08565b9050919050565b6000602082019050818103600083015261118181610e6e565b9050919050565b600060208201905081810360008301526111a181610ed4565b9050919050565b600060208201905081810360008301526111c181610f3a565b9050919050565b600060208201905081810360008301526111e181610fa0565b9050919050565b6000602082019050818103600083015261120181611006565b9050919050565b600060208201905081810360008301526112218161106c565b9050919050565b600060208201905061123d60008301846110d2565b92915050565b600060208201905061125860008301846110e1565b92915050565b600081519050919050565b600082825260208201905092915050565b60006112858261130e565b91506112908361130e565b9250827fffffffffffffffffffffffffffffffffffffffffffffffffffffffffffffffff038211156112c5576112c461138a565b5b828201905092915050565b60006112db826112ee565b9050919050565b60008115159050919050565b600073ffffffffffffffffffffffffffffffffffffffff82169050919050565b6000819050919050565b600060ff82169050919050565b60005b83811015611343578082015181840152602081019050611328565b83811115611352576000848401525b50505050565b6000600282049050600182168061137057607f821691505b60208210811415611384576113836113b9565b5b50919050565b7f4e487b7100000000000000000000000000000000000000000000000000000000600052601160045260246000fd5b7f4e487b7100000000000000000000000000000000000000000000000000000000600052602260045260246000fd5b6000601f19601f8301169050919050565b611402816112d0565b811461140d57600080fd5b50565b6114198161130e565b811461142457600080fd5b5056fea26469706673582212207b3ab6ec9fb763d25adfbb36b4aeb2301a11d7969ad337929e331300814d66c264736f6c63430008000033",
  "linkReferences": {},
  "deployedLinkReferences": {}
}